:100000000C9433020C947A020C947A020C947A02C7
:100010000C947A020C947A020C947A020C947A0270
:100020000C947A020C947A020C94C11C0C94951DC9
:100030000C9403180C947A020C947A020C947A02B1
:100040000C947A020C947A020C947A020C947A0240
:100050000C947A020C945A180C947A020C947A023A
:100060000C947A020C947A020C947A020C947A0220
:100070000C947A020C947A020C947A020C947A0210
:100080000C947A020C947A020C947A020C947A0200
:100090000C947A020C947A020C947A020C947A02F0
:1000A0000C947A020C947A020C947A0214001A00CE
:1000B0000900130005000D000F0018001C0034009B
:1000C00004681564166117620A000E001162086167
:1000D0000C6412681D411B74060007001900100013
:1000E0000B003600377438410000000029442C42D0
:1000F0002B4328462A454C47000000007A004C025A
:100100004901490279007900490249014C027A000B
:10011000E300E200E000E10000000000E100E00098
:10012000E200E3007A004C024901490279007900BB
:10013000490249014C027A0000000000F200F3007D
:10014000F100F100F300F20000000000005C00008C
:100150000000000000007900490249014C027A00C9
:10016000E300E200E000E10000003900500051002F
:1001700052004F000000E6000000000000004900AF
:100180004A004E004B004D0000000000000000003F
:10019000000028002A004C0000000000005C000065
:1001A0000000000000007900490249014C027A0079
:1001B000E300E200E000E10000000000EF00EE00DC
:1001C000ED00F0000000E60000000000000000006C
:1001D000FB00FA00F900FC00000000000000000035
:1001E0000000F100F300F20000000000005C0000DD
:1001F000000000000000C35CC45CC65CC85CCA5C54
:10020000E300E200E000E1000000DD5CAC00AA00D9
:10021000A900AB000000E6000000000000000000A4
:1002200000000000000000000000000000000000CE
:100230000000AD00AE00A800000000002F00240068
:100240002500260030000000000000000000005CD7
:1002500033002100220023002E000000E100E00016
:10026000E200E30035001E001F0020003100000006
:1002700000000000E600000000000000370027003A
:100280002D00000000000000000000002F022402EA
:100290002502260230020000000000000000005C81
:1002A00033022102220223022E020000E100E000BC
:1002B000E200E30035021E021F02200231020000AC
:1002C00000000000E60000000000000026022702F7
:1002D0002D0200000000000000000000450040006A
:1002E0004100420046000000000000000000005CE9
:1002F00044003D003E003F0047000000E100E000F8
:10030000E200E30043003A003B003C0048000000EC
:1003100000000000E60000000000000065002C0066
:100320002B00000000000000000000000C03630030
:1003300068006F006300560000001E034200720058
:10034000690063006B0042006F00740073002000BE
:100350004C006100620073000000040309040902FC
:100360003B00020100A0FA090400000103010100A2
:100370000921110100012240000705810308000A3C
:1003800009040100010300000009211101000122FC
:100390007B000705820320000A1201000200000012
:1003A00008B0BB020001000102000105010902A121
:1003B0000185020901A10005091901290815002577
:1003C0000195087501810205010930093115812562
:1003D0007F95027508810609381581257F9501757D
:1003E000088106050C0A38021581257F95017508DC
:1003F0008106C0C005010980A101850319012AB742
:1004000000150126B700950175108100C0050C0983
:1004100001A101850419012AA002150126A0029557
:100420000175108100C005010906A101050719E049
:1004300029E71500250195087501810295017508C8
:1004400081010507190029FF150026FF0095067593
:100450000881000508190129059505750191029586
:100460000175039101C011241FBECFEFDAE0DEBF9A
:10047000CDBF04B603FE27C0809152029091530273
:10048000A0915402B09155028730904BA740B04BD9
:10049000D1F4109252021092530210925402109210
:1004A000550214BE84B7877F84BF0FB6F894A89511
:1004B00080916000886180936000109260000FBEA0
:1004C000E0E0F8E3099511E0A0E0B1E0E4EDFFE33E
:1004D00002C005900D92A638B107D9F722E0A6E830
:1004E000B1E001C01D92A235B207E1F70E946E1182
:1004F0000C94C41F0C94000081E0089581E00895DD
:100500000C947E0208950C9482021F93CF93DF9384
:1005100000D000D00F92CDB7DEB749835A836B83EA
:100520003091880189819A8131111DC06623B9F00B
:100530002223A9F00E943F08182F682F89819A81F1
:100540000E94EB0769817A81812F0F900F900F90A5
:100550000F900F90DF91CF911F910C94EB0E0E94A2
:100560001708182FEFCF0E943F0869817A81EDCFDD
:10057000FC01262F408151816281738184810C941A
:10058000850281E00895CF93DF93EC0160E00E9443
:10059000B802BE01DF91CF910C9483020E94E00F5C
:1005A0000E9447030C9405100E945B160C940810DF
:1005B00008950E9494060E94D8022FEF84E39CE0E5
:1005C000215080409040E1F700C000000C947E185C
:1005D0000F931F93CF93DF938C0161E00E94B802C9
:1005E000EC01B8010E9480028823D9F1B801CE0144
:1005F0000E949F168823A9F1B801CE010E947014B1
:10060000882379F1B801CE010E94C214882349F1F0
:10061000B801CE010E94E515882319F1F801828105
:10062000882361F0CB35FDE5DF0721F170F4C115BA
:10063000ECE5DE07A1F0CF3DDC45C9F0C801DF9154
:10064000CF911F910F910C947C02CC358DE5D8078A
:10065000A1F0CD35DD4591F70E94920BEFCF0E94BE
:10066000D90280E0DF91CF911F910F9108950E94F0
:10067000F60CF7CF0E949B0BE1CF0E949E0BDECFC2
:1006800008950C94400381E008950C944303089569
:10069000CF93C82F0E9441038C2FCF910C94450318
:1006A000CF93DF93CDB7DEB72B970FB6F894DEBFAD
:1006B0000FBECDBF4F83588769877A878B876111BB
:1006C0000E94C10B1E821D8285E0FE013796DE016D
:1006D000119601900D928A95E1F78C819D81892B6D
:1006E00089F449815A816B817C818D819E810E9430
:1006F000C10A2B960FB6F894DEBF0FBECDBFDF91B7
:10070000CF91089589819A8189238F3F51F3CE013A
:1007100001960E94C1028111E4CFEBCFFC018081E0
:1007200091810C948108CF93C82F882309F447C086
:100730008CEF8C0F813AA0F46C2F80910001909186
:1007400001010E946E17882329F08C2F0E94620BF2
:100750000E94E40B8C2F0E945B0BCF910C94E40B56
:1007600080E28C0F883048F4C77081E001C0880FA8
:10077000CA95EAF70E94A40BF0CFEBE5EC0FE3304B
:1007800040F4F0E0EC5BFE4F808190E0CF910C9460
:100790003017E8E5EC0FE73150F4F0E0EE0FFF1F03
:1007A000EA5EFE4F80819181CF910C944617CD3E39
:1007B00030F08C2F0E94FC11CF910C94CF12CF916E
:1007C0000895882361F19CEF980F913A20F40E94DC
:1007D000620B0C94E40B90E2980F983050F4877001
:1007E00091E001C0990F8A95EAF7892F0E94AA0B20
:1007F000F0CF9BE5980F933020F490E080E00C94CC
:10080000301798E5980F973120F490E080E00C9431
:1008100046178D3E20F00E9456120C94CF12089578
:100820001F93CF93DF93182FEB010E949303209720
:1008300031F4812FDF91CF911F910C94E1038FE967
:100840009FE00197F1F700C000002197F0CF70E022
:1008500060E0893311F460E570E00C9410048823A3
:1008600021F00E94A40B0C94E40B0895882321F03E
:100870000E94AA0B0C94E40B0895BF92CF92DF92D2
:10088000EF92FF920F931F93CF93DF937C01D62FAC
:10089000C72FFC011281058102950F700E94790B10
:1008A000D82E8823A1F0D12E112389F08C2F807FA0
:1008B000803429F080E28D0FD12C883040F082E026
:1008C0000E94350C0E94790B91E0D82ED926CC2EAF
:1008D000C2949FE0C922FBE0FC1598F1EC2DF0E0FA
:1008E000EA53F04E0C945B1F0C2F0F70C07F11F079
:1008F0000295007F1123A9F0002359F080E28D0FAB
:10090000883010F0D11109C0802F0E94A40B0E94E2
:10091000E40B8D2F0E94930314C0802F0E94B40B10
:10092000F6CF8D2F0E94E103002359F080E28D0F56
:10093000883010F0D1112BC0802F0E94AA0B0E948A
:10094000E40BEC2DE850FF0B349720F40E940B17BA
:100950000E944803DD2009F488C10E94750B80FDC8
:1009600084C1F70112820E946F0B0E944F07C701DA
:100970000E9456060E946F0BDF91CF911F910F913D
:10098000FF90EF90DF90CF90BF900C947007802F76
:100990000E94BA0BD4CF2C2F2F70B22EC07FC03242
:1009A00019F0B29480EFB822DD2339F0D13019F17B
:1009B000112361F1002321F1ACCF112381F001114A
:1009C00006C00E94C70B8B290E942F04BACF0130AA
:1009D000C1F70E94C70B8B290E94CD0BB2CF01112A
:1009E00006C00E94DA0B8B2D0E943604AACF01307C
:1009F00009F4A7CFF6CF112329F0063008F0A1CFD4
:100A00008B2DE2CF053008F09CCFEDCF002359F3BA
:100A1000D93349F43FEF87EE93E031508040904066
:100A2000E1F700C000008D2F0E94E1038ACF8C2FD8
:100A300086958695837069F0813009F082CF8D2F7D
:100A40009C2F9370111102C090E080E00E94461725
:100A500078CF8D2F9C2F9370111102C090E080E011
:100A60000E9430176ECF8D2F112329F00E94FC11A8
:100A70000E94CF1266CF0E945612FACF8C2F83703D
:100A800009F041C011115DCF4D2F42954695477039
:100A9000440F440F0D2F0F7010E030E020E0042EC3
:100AA00004C0000F111F221F331F0A94D2F760E009
:100AB00070E0CB01D4FF0FC06FE070E080E090E009
:100AC00004C0660F771F881F991F4A95D2F760955B
:100AD000709580959095C695C695C370602B712BC7
:100AE000822B932BC23049F058F4C13019F00E9488
:100AF000010727CF0E94EF0624CF0E94130721CFC2
:100B00000E94ED061ECF8695112311F08C2F817067
:100B1000882309F416CF4D2F429546954770440F10
:100B2000440F0D2F0F7010E030E020E0042E04C0C1
:100B3000000F111F221F331F0A94D2F760E070E0EC
:100B4000CB01D4FF0FC06FE070E080E090E004C004
:100B5000660F771F881F991F4A95D2F76095709589
:100B600080959095C695C695C370602B712B822B8E
:100B7000932BC23049F058F4C13019F00E94C607D7
:100B8000E0CE0E94B407DDCE0E94D807DACE0E94E4
:100B90002907D7CECF70112329F08C2F0E944F0741
:100BA0008D2F12CF8D2F0E9436048C2F0E9470073C
:100BB000C8CED23F89F160F4D03FC9F0D13F29F1CE
:100BC000112309F442C00111A4CE8C2F8F7121C0D2
:100BD000D33F39F1D43FA1F7112369F1CF718C2FA5
:100BE0000E944F0763E08C2F0E941A0CAACE11239B
:100BF00041F0053008F0A5CE8C2F8F710E9493072D
:100C0000A0CE063008F09DCEF7CF8C2F8F71112328
:100C100069F20E944F0795CE8C2F8F711123C9F373
:100C2000C5CF112329F08C2F8F710E943A0789CEEE
:100C30000E94350786CE81E00E94350C023008F410
:100C400080CE82E00E94350C7CCE002359F0D9334F
:100C500009F0E9CEEFEFF7EE23E0E150F04020405D
:100C6000E1F7DFCE8C2F8F71A1CFDF91CF911F9154
:100C70000F91FF90EF90DF90CF90BF9008950F936A
:100C80001F93CF93DF93EC01688179818A810E9461
:100C90008B088C010E94EA070E94EC06B801CE0185
:100CA000DF91CF911F910F910C943D04CF93DF936F
:100CB000EC018B819C81892B29F088819981892382
:100CC0008F3F59F4DF91CF910895CE010E943F06E6
:100CD000CE01DF91CF910C94C302CE010E94E802B5
:100CE0008111F3CF0E94790B882361F38A818823D5
:100CF00049F382E0DF91CF910C94350C90E080E0D5
:100D00000E94301790E080E00E9446170E94C10BBD
:100D10000E94C40B0E94E40B0E94F6130C94CF12A5
:100D20000E94690B0C947E060E94B10B0C949006F5
:100D3000E92FE295EF70E250EE3070F4F0E0EE5201
:100D4000F04E0C945B1F803F19F020F4883E20F495
:100D500081E00895843FE1F380E00895883EC0F388
:100D6000813FD1F7F5CF93FB882780F90895FC01E7
:100D7000808191810E9481080C949806CF93DF9323
:100D800000D000D00F92CDB7DEB70F900F900F902C
:100D90000F900F90DF91CF910895CF93DF9300D004
:100DA00000D000D0CDB7DEB726960FB6F894DEBFE0
:100DB0000FBECDBFDF91CF91089508950C94DD064D
:100DC0000E94DE066093A6017093A7018093A8019C
:100DD0009093A9010C947E0608950C94E0060F935D
:100DE0001F930091A6011091A7012091A8013091B5
:100DF000A901602B712B822B932B1F910F910C94C7
:100E0000E0060F931F930091A6011091A701209176
:100E1000A8013091A90160237123822393231F919C
:100E20000F910C94E0060F931F930091A60110916F
:100E3000A7012091A8013091A9016027712782277D
:100E400093271F910F910C94E0060C94DD060C94EF
:100E500025070E9427076093A2017093A301809346
:100E6000A4019093A5010C947E0660E070E0CB0194
:100E70000C9429070F931F9341E050E060E070E06D
:100E80008A019B0104C0000F111F221F331F8A9586
:100E9000D2F7C901B8011F910F910C9429070F9344
:100EA0001F9341E050E060E070E004C0440F551F24
:100EB000661F771F8A95D2F78091A2019091A301B6
:100EC000A091A401B091A5018A019B01082B192BC7
:100ED0002A2B3B2BC901B8011F910F910C942907B4
:100EE0000F931F9341E050E060E070E004C0440FB6
:100EF000551F661F771F8A95D2F7CB01BA016095FF
:100F00007095809590950091A2011091A301209178
:100F1000A4013091A50160237123822393231F91A3
:100F20000F910C9429070F931F9341E050E060E06C
:100F300070E004C0440F551F661F771F8A95D2F7D3
:100F40008091A2019091A301A091A401B091A5016B
:100F50008A019B01082719272A273B27C901B801C5
:100F60001F910F910C9429070F931F930091A201D9
:100F70001091A3012091A4013091A501602B712B48
:100F8000822B932B1F910F910C9429070F931F9382
:100F90000091A2011091A3012091A4013091A5011B
:100FA00060237123822393231F910F910C942907AF
:100FB0000F931F930091A2011091A3012091A4010E
:100FC0003091A50160277127822793271F910F91E8
:100FD0000C94290708952AE0929F800D1124982FE0
:100FE000977041E001C0440F9A95EAF7869586957F
:100FF000869595E0899FF0011124E757FE4F90E018
:1010000080E070E05191DF0111979B01082E02C032
:10101000369527950A94E2F72170219525272423F8
:1010200025272C9301968530910561F708952AE0D4
:10103000929F800D1124982F97708695869586959E
:1010400025E0829FF0011124E757FE4F50E040E079
:1010500080E0219130E0092E02C0369527950A9450
:10106000E2F721703327042E01C0220F0A94EAF719
:10107000822B4F5F5F4F4530510559F70895BF925E
:10108000CF92DF92EF92FF920F931F93CF93DF9354
:101090008C01C090A201D090A301E090A401F09037
:1010A000A5018091A6019091A701A091A801B091FE
:1010B000A901C82AD92AEA2AFB2ACFE1D0E0BC2E0E
:1010C000D701C6010C2E04C0B695A79597958795B4
:1010D0000A94D2F780FD0EC0219788F7B12C8B2D92
:1010E000DF91CF911F910F91FF90EF90DF90CF9004
:1010F000BF900895B8018C2F0E94FF0E019761F3F5
:10110000EECFCF93DF93EC010E943F08BE01DF9149
:10111000CF910C94FF0E1F93CF93DF93EB0190912F
:101120008801992331F0CB01DF91CF911F910C946D
:101130008108882379F0CB010E943F08182F682F7F
:10114000CE010E94EB07BE01812FDF91CF911F914D
:101150000C94FF0ECB010E941708182FF4CF1F9399
:10116000CF93DF93C091AA0116E08091AB018C135D
:1011700004C0DF91CF911F910895D0E01C9FF00132
:101180001D9FF00D1124E455FE4F40815181628175
:101190007381848195810E94CD062196C770E5CF29
:1011A0004091DC015091DD016091DE017091DF0121
:1011B0008091E0019091E1010C94CD061F93CF93B3
:1011C000DF938091E101807FA9F48091DE01882383
:1011D00089F08091AA01C091AB016091DC0170910E
:1011E000DD01A091DF01B091E001D62FD72316E0F9
:1011F000C81304C0DF91CF911F91089590E010971C
:1012000011F0DF3F19F401968770F2CF189F90011B
:10121000199F300D1124F901E455FE4F4181471308
:10122000F2CF40814613EFCF42814111ECCF438191
:1012300054814A1B5B0B483C510528F78091E10122
:101240008F7080618093E101F901EF54FE4F80813E
:101250008F70806180838CED91E00E945606DF9153
:10126000CF911F910C94AF08AF92BF92CF92DF92B3
:10127000EF92FF920F931F93CF93DF93CDB7DEB71B
:1012800061970FB6F894DEBF0FBECDBF8C0185E02D
:10129000F801DE011D9601900D928A95E1F7F801A3
:1012A000E2808CEDC82E81E0D82E6091DF01709134
:1012B000E0016115710509F448C19091DC012091AC
:1012C000DD01892F82238F3F09F43FC14081518185
:1012D000A380B480F090DE01F501E61BF70BFF2040
:1012E00009F404C18091E101382F307FE83CF10519
:1012F00008F0BDC0311179C0FE2C251323C0941312
:1013000021C0E1101FC08F7080618093E1010E94B5
:10131000D008C6010E9456068091E101F80185833C
:101320008F2D61960FB6F894DEBF0FBECDBFDF9153
:10133000CF911F910F91FF90EF90DF90CF90BF90D2
:10134000AF900895AB2829F0842F85238F3F09F0B3
:1013500015C180E0F82FF170DF2E80FF3CC0809136
:10136000AA012091AB0136E0821315C04D875E873C
:101370008D859E850E948108292F22952F7022300D
:10138000F0F0243018F59F70F1F0F8019581907F0E
:10139000D1F4D12C1EC090E0389FF001399FF00DA0
:1013A0001124E455FE4F6181651306C0608164130A
:1013B00003C06281E6120FC001968770D5CF9F707F
:1013C00011F0882331F3805E883018F3C8010E9441
:1013D0005606FD2CA5CFEE2009F4A2CF8091E101A5
:1013E00081608093E101F12C9BCF251314C09413ED
:1013F00012C0E11010C0F8018583C8010E94560692
:1014000086E0F801ACEDB1E001900D928A95E1F72C
:101410000E94D00885CFC8010E94B706882319F121
:10142000EE2009F18091E101803270F02091DC0121
:101430003091DD0138872F831986BB86AA868C8779
:10144000CE0107960E94560686E0F801ACEDB1E0A9
:1014500001900D928A95E1F70E94DE080E94D00863
:10146000FF24F3945DCFC8010E945606F9CF3111D5
:1014700013C07A2DB98AA88A6E2D89890E94BE066A
:101480008CED91E00E94560686E0F60111928A9555
:10149000E9F70E94D008A7CF25130FC094130DC001
:1014A000E1100BC0F8018583C8010E94560686E052
:1014B000F60111928A95E9F733CFC8010E94B70669
:1014C000882389F2EE2079F28091E101803208F4DC
:1014D000BBCF2091DC013091DD013A8329831B824F
:1014E000BD82AC828E83CE010196ACCFE83CF10583
:1014F000F8F4FE2CEE2009F4B6CF25130BC094139C
:1015000009C086E0F801ACEDB1E001900D928A953A
:10151000E1F706CFC8010E94B706811195CF8091EF
:10152000E10181608093E101C8010E945606F8CE76
:101530007A2DB98AA88A6E2D89890E94BE0686E016
:10154000F60111928A95E9F763CFEE2009F48BCF6B
:10155000C8010E94B706F82E882309F484CF86E0DC
:10156000F801ACEDB1E001900D928A95E1F78CEDB8
:1015700091E00E948E030E94DE084ACF81E08E2512
:10158000E9CE1F93CF93DF93CDB7DEB72C970FB67D
:10159000F894DEBF0FBECDBF4F83588769877A8727
:1015A0008B879C87CE0107960E943409882369F0B7
:1015B0008A859B85892B39F04F815885842F852317
:1015C0008F3F09F071C016E05FC086E0FE013796DC
:1015D000DE01119601900D928A95E1F78A859B852F
:1015E000892B89F38F81988589238F3F61F320911F
:1015F000AB0130E0C9010196877099274091AA019B
:101600004817190671F40E9494061092AB011092CB
:10161000AA0186E0ECEDF1E0DF011D928A95E9F781
:10162000D2CF96E0929FD001939FB00D1124A45584
:10163000BE4FFE01319601900D929A95E1F780938D
:10164000AB010E94AF08BFCF819FC0011124845518
:101650009E4F0E9434098823E9F0E091AA011E9F61
:10166000F0011124E455FE4F408151816281738164
:10167000848195810E94CD068091AA0190E0019617
:10168000877099278093AA018091AA019091AB015C
:101690008913DACF2C960FB6F894DEBF0FBECDBFFC
:1016A000DF91CF911F91089569857A858B859C85FF
:1016B0000E94CD0688CF682F809100019091010192
:1016C0000C94A417682F80910001909101010C9453
:1016D000A61780910001909101010C94A8178091A8
:1016E000E20185958595859508958091E201877041
:1016F00008959091E201977081E009F480E00895E7
:101700009091300292FB222720F9281751F080FB9C
:1017100092F99093300280912F02909130020C94B4
:10172000720C08958091300282FB882780F991E045
:1017300089270C94800B81E00C94800B80E00C9442
:10174000800B8091EE0108959091EE01892B80939A
:10175000EE01089580959091EE0198239093EE010B
:1017600008951092EE0108959091ED01892B8093D8
:10177000ED01089580959091ED0198239093ED01EE
:1017800008951092ED0108951092EC010895809152
:10179000E301089508950C94CA0B9091300292FDD4
:1017A00008C09091E301981721F08093E3010C9415
:1017B000CB0B08958091E301882329F01092E30177
:1017C00080E00C94CB0B0895E0910001F0910101B1
:1017D0008091EE018083E0910001F0910101808110
:1017E0009091ED01892B8083E0910001F09101013E
:1017F00080819091EC01892B80839091E301992362
:1018000081F0E0910001F09101018081892B8083BA
:1018100080910001909101010E945C1781110E944A
:10182000DA0B80910001909101010C941717089533
:101830000C94170C9091300292FD10C098E0899F93
:1018400090011124622B6093E2010E944F07809166
:10185000E2018595859585950C94180C0C944F079D
:101860001092E20180E00C94180C9091E2018095B6
:1018700089238093E201282F277039F4282F082E1E
:10188000000C330B9217130621F49091300292FF53
:1018900007C08595859585950E9470070C94300C3E
:1018A000089590E080E00E948A1F21E0893E9E4FCB
:1018B00009F020E0822F089582E090E00C94821FCE
:1018C00083E090E00C94821FCF9384E090E00E942C
:1018D000821FC82F82E290E00E94821F982F8C2FD7
:1018E000CF910895CF93C92F682F84E090E00E9494
:1018F000901F6C2F82E290E0CF910C94901FAB016F
:10190000BC018FE090E00C94A21FAB01BC0183E10D
:1019100090E00C94A21F60E070E0CB010C94850C69
:1019200060E070E0CB010E947F0C0C948B0C69EEA0
:101930007EEF90E080E00E94AE1F60E082E090E0E9
:101940000E94901F60E083E090E00E94901F109240
:10195000A6011092A7011092A8011092A90160E0BF
:1019600084E090E00E94901F60E082E290E00E949C
:10197000901F60E085E090E00E94901F60E086E0AC
:1019800090E00E94901F6FEF87E090E00E94901F10
:1019900040E050E0BA0188E090E00E94A21F60E0C1
:1019A0008DE090E00E94901F40E050E0BA0188E195
:1019B00090E00E94A21F60E087E190E00E94901FEB
:1019C00040E050E0BA018CE190E00E94A21F70E07C
:1019D00060E080E290E00E94AE1F40E050E0BA017B
:1019E00088E190E00E94A21F0C94900C0C94970C3C
:1019F000682F8EE090E00C94901F0E943F18609337
:101A0000FC017093FD018093FE019093FF016093B0
:101A1000F8017093F9018093FA019093FB01089506
:101A200085B7806885BF85B7806885BF08950895AC
:101A300008950C94170D08950C941B0D0E94100D21
:101A40008DED9FE00E94A2180E94180D0C94190DB4
:101A500081E008950C94280D089508950E942C0D9E
:101A60000C942D0D0E942A180E94C7100C941C0D76
:101A70005F926F927F928F929F92AF92BF92CF921E
:101A8000DF92EF92FF920F931F93CF93DF93CDB727
:101A9000DEB72A970FB6F894DEBF0FBECDBF0E9407
:101AA000E91081110E94FD0C20EFC22E21E0D22E00
:101AB00010E000E0812F0E940A105C01F601E19025
:101AC000F1906F01E816F90609F43EC0809100021A
:101AD00081FD0E941310EA24FB24512C6624639498
:101AE000712C4601F2E08F1A9108C70186219721D7
:101AF000892B21F10E942A0D8823B1F05E821F8379
:101B000021E0C50186219721892B09F420E028874F
:101B10000E9433188160782F9A8789874E815F8170
:101B200068858A850E945003F40180819181862511
:101B30009725918380830F5F0430E0F45394660C03
:101B4000771CFAE05F12D1CF1F5F143009F0B2CFDB
:101B5000011110C08FEF89838A831B820E94331882
:101B60008160782F9D838C8349815A816B818D811F
:101B70000E9450030E94EA120E940B179091EF01FD
:101B80008917D9F00E940B178093EF012A960FB6A0
:101B9000F894DEBF0FBECDBFDF91CF911F910F91A3
:101BA000FF90EF90DF90CF90BF90AF909F908F907D
:101BB0007F906F905F900C9448032A960FB6F8942C
:101BC000DEBF0FBECDBFDF91CF911F910F91FF9070
:101BD000EF90DF90CF90BF90AF909F908F907F90CD
:101BE0006F905F900895CF93DF930E94030FEC01F5
:101BF000811521E5920708F042C0811530E5930771
:101C000008F09DC0883E910530F5803E910508F0B2
:101C100092C0883A910588F4853A910508F084C00D
:101C20008130910509F487C0009709F484C00497B6
:101C300008F081C0D0E0C0E07EC08F3B9105D0F7B6
:101C4000C85AD0E0CC0FDD1FC95BDE4F0990D881A8
:101C5000C02DD46470C08115904250F4C11581E04C
:101C6000D80708F068C0CD3ED10520F3D06563C029
:101C7000C11590E4D907F0F2DF70D06A5CC081151D
:101C800025E5920700F5811534E5930708F08BC030
:101C9000811543E5940708F073C0C11582E5D807A4
:101CA00008F469C0CE018370992721E030E002C0BA
:101CB000220F331F8A95E2F7C695C69580E2C89F2A
:101CC000E001112454C0C11599E5D907A8F4C11544
:101CD00028E5D20708F06CC0C11536E5D30708F037
:101CE000A9CF8C2F0E949A0FC82FD0E0DC2FCC27D1
:101CF000CC27DF71D0621FC0C1154AE5D40708F4B4
:101D00005CC0CE0190568115904208F093CF8D2F84
:101D10008F710E949A0F90E0982F882788279F71D3
:101D20009C012C2BE901E6CFC55AD0E0CB58DE4F01
:101D3000C881D0E0D064CE01DF91CF910895E4E076
:101D400096958795EA95E1F783702C2F2695269531
:101D5000237040E2249F90011124382B8C2F837034
:101D6000C1E0D0E002C0CC0FDD1F8A95E2F7C22BA4
:101D7000D32BDC68E0CFDC2FCC27C16FD06ADBCF60
:101D80008370992721E030E002C0220F331F8A952B
:101D9000E2F7C695C69590E2C99FE0011124C22BD7
:101DA000D32BDA68C8CFD82FCC27C46FD06AC3CF63
:101DB000DC2FCC27C06FD06ABECF8C2F8F700E94D3
:101DC0009A0F34E0D695C7953A95E1F7CF709C2FDE
:101DD000EC01D069B0CF972F70E02AE0929F600DA0
:101DE000711D1124FB0198E2899FE00DF11D112462
:101DF000EE0FFF1FE455FF4F8591949108950E94C7
:101E0000EB0E0C94F30D82389105B1F1B0F48133EF
:101E1000910509F475C048F48932910509F469C047
:101E20008A32910509F473C008958533910509F448
:101E300059C08933910501F10895833E9105A9F1B7
:101E400038F4803E9105F9F0823E910549F10895FC
:101E5000863E9105A9F1873E9105C9F1843E910521
:101E600019F52091300221FF1FC080912F0284FDBF
:101E700014C087EE90E0089520912F022370A1F006
:101E800080EE90E0089520912F0220FD47C0309110
:101E9000300230FF09C024FF44C090E080E004C05D
:101EA00020912F0222FDF7CF089520912F0222FDCD
:101EB0003BC03091300230FDE3CF24FFF5CFEDCFB2
:101EC00020912F0223FFF0CF24FDE7CFD2CF209126
:101ED0002F0223FD2CC03091300231FFEECF84EE73
:101EE00090E0089520912F0225FFDECF89E290E057
:101EF000089520912F0225FFD7CF85E390E0089524
:101F000020912F0226FFD0CF8AE290E00895209101
:101F10002F0226FFC9CF81E390E0089589E390E086
:101F2000089583EE90E0089582EE90E0089586EEA5
:101F300090E0089590912F0292FF06C0282F2871FB
:101F40002830F9F4877F846093FF06C0282F28711A
:101F50002831F1F4877E84612091300220FF06C091
:101F6000382F38713830D9F4877F816021FF06C05F
:101F7000282F28712831D1F4877E816194FD877ED6
:101F80000895282F24712430F9F68B7F8860DCCFE8
:101F9000282F2471243101F78B7E8861DDCF382F03
:101FA0003171313019F78E7F8860E0CF282F217191
:101FB000213121F78E7E8861E1CF80E00895089578
:101FC0000E94510C811102C00E94F60C0E945C0C10
:101FD000809300020E94640C9093300280932F0241
:101FE0000E94DF0F0E94600C682F70E090E080E09C
:101FF0000E94ED066091A2017091A3018091A4015D
:102000009091A5010C94270708950C94041008954D
:102010000C940710E82FF0E0EE0FFF1FE75CFD4F78
:10202000808191810895089580EA8A95F1F7089555
:1020300000C008950C941410F894E82FE295EF7006
:10204000F0E031A1282F2F7081E090E001C0880FCF
:102050002A95EAF7982F9095932391A392A1892B23
:1020600082A378940895CF93DF9384EF0E941C108D
:1020700085EF0E941C1081E90E941C1080E90E94DB
:102080001C10C8E7D1E089918F3F11F00E941C100D
:1020900081E0C238D807B9F7DF91CF910895AF92A8
:1020A000BF92CF92DF92EF92FF920F931F93CF9345
:1020B000DF938C01B62EC62FD0E0CE018E579E4FF7
:1020C0007C01FC0120812F3F09F453C0F894E22FDA
:1020D000E295EF70F0E031A12F7081E090E001C057
:1020E000880F2A95EAF7932F982B91A392A18095B8
:1020F000892382A378940E941810E8E7F1E030E089
:1021000020E0D12CC12C41E050E081918F3FE1F1E2
:10211000A82FA295AF70B0E090966C9170E08F7090
:1021200002C0759567958A95E2F760FD2DC0CA01DA
:10213000022E02C0880F991F0A94E2F7C82AD92AF2
:102140002F5F3F4F2A30310501F7F70180818F3F24
:1021500011F00E941C1061E0C114D10409F460E088
:102160008B2D0E941A10CC0FDD1FC00FD11FD982FA
:10217000C882DF91CF911F910F91FF90EF90DF9078
:10218000CF90BF90AF90089590E080E0D7CF0E94AD
:102190003310A1E3B2E011961C921E92E9E3F2E043
:1021A0001182108213961C921E9212971382128231
:1021B00015961C921E9214971582148217961C92E3
:1021C0001E9216971782168284E00E9434110C9496
:1021D000CE02FF920F931F93CF93DF93CDB7DEB75D
:1021E00028970FB6F894DEBF0FBECDBF8E010F5FEC
:1021F0001F4F88E0F80111928A95E9F7F12C6F2DB5
:10220000C8010E944F10F394F4E0FF12F8CF48E0A9
:1022100050E0B80181E392E00E94751FFF24F3941F
:10222000009709F4F12C892B41F088E0F801A1E333
:10223000B2E001900D928A95E1F72F2D44E069E319
:1022400072E081E392E00E9435110E94D4028F2D4A
:1022500028960FB6F894DEBF0FBECDBFDF91CF91A9
:102260001F910F91FF9008950895FF920F931F9370
:10227000CF93DF93F82E092F162FD72FC42F2223A9
:1022800049F081E0809303020E9433189093020288
:1022900080930102809103028823A1F080910102C2
:1022A000909102020E944B18059760F0EF2DF02FDD
:1022B000A12FBD2F90E080E0D0E08C179D0744F067
:1022C00010920302DF91CF911F910F91FF9008951B
:1022D000219131912D933D930196EFCF0E94AF173D
:1022E0000E94001A0E94191A0E942B1A0E942E0D99
:1022F000FBCF80910C0280FF12C06091060185E047
:10230000689FB0011124759567957595679560383C
:102310007105A8F561157105A1F1862F089581FF5A
:1023200009C06091060185E0689FB0011124759590
:102330006795EDCF6091060182FD0AC080910B0286
:102340008823D1F09091050160910601891728F04A
:1023500085E0689FB0011124DACF869FB001112477
:1023600085E0869F9001879F300D1124692F70E0D2
:10237000C9010E94471FCBCF65E070E0CECF8FE749
:10238000089581E0089580910C0280FF0CC0609157
:10239000030170E0759567957595679561157105F1
:1023A00049F1862F089581FF06C06091030170E016
:1023B00075956795F3CF6091030182FD0BC09091F5
:1023C0000A029923A1F060910201809103019617FE
:1023D00038F0682F70E06038710500F38FE70895DA
:1023E000899FC001112470E00E94471FF4CF61E073
:1023F00070E0D7CF81E008958D3E31F40E947911CD
:1024000081958093100208958E3E19F40E947911EF
:10241000F8CF8F3E31F40E947911819580930F029D
:102420000895803F19F40E947911F8CF893F29F46B
:102430000E94C3118093110208958A3F21F40E94E3
:10244000C3118195F7CF8B3F31F40E94C311819561
:102450008093120208958C3F19F40E94C311F8CFA3
:102460009FE0980F983070F4815F990B21E030E085
:1024700001C0220F8A95EAF780910E02822B809389
:102480000E0208958D3F31F480910C02816080939B
:102490000C0208958E3F21F480910C028260F7CFE8
:1024A0008F3FB9F780910C028460F1CF40910F0209
:1024B0008D3E59F48091100287FF0DC010921002DA
:1024C00041110BC010920B0208C08E3E81F4809126
:1024D000100218169CF3442381F080911102909110
:1024E0001202892B09F05AC010920A0208958F3EF9
:1024F00049F447FFF0CF10920F0280911002811132
:10250000ECCFE0CF803F19F41416ACF3E4CF9091F8
:102510001102893F29F41916F4F610921102DBCF4B
:102520008A3F19F497FFD7CFF8CF909112028B3FD3
:1025300029F497FFD0CF10921202CDCF8C3F19F41F
:102540001916CCF3C8CF9FE0980F983090F4815FB4
:10255000990B21E030E0B90102C0660F771F8A9520
:10256000E2F7CB01809590910E02892380930E02B1
:10257000B2CF8D3F31F480910C028E7F80930C029C
:10258000AACF8E3F21F480910C028D7FF7CF8F3F31
:1025900009F0A1CF80910C028B7FF0CF08950E94AB
:1025A00033189C0190910F0280911002982B21F01A
:1025B0003093090220930802909111028091120237
:1025C000982B21F030930702209306028DE092E0D1
:1025D0000C942217EF92FF920F931F93CF93DF93E8
:1025E00000D000D000D0CDB7DEB786E0EDE0F2E05D
:1025F000DE01119601900D928A95E1F7E0900F02AD
:10260000F0901002009111021091120210920F022C
:102610001092100210921102109212028E2D8F2928
:1026200091F080910802909109020E944B18AC0130
:1026300090910B02992309F43FC080910701841700
:10264000150608F447C0802F812B91F08091060277
:10265000909107020E944B18AC0190910A029923B5
:1026600009F477C0809104018417150608F47FC02F
:1026700080910F0290911002892B90911102892B69
:1026800090911202892B11F00E94CF1286E0FE0178
:102690003196ADE0B2E001900D928A95E1F7269671
:1026A0000FB6F894DEBF0FBECDBFDF91CF911F9163
:1026B0000F91FF90EF900895209105028AE0289FE6
:1026C000900111242417350708F0BDCF9F5F909328
:1026D0000B0202C09F3FD1F7EE2059F00E94791102
:1026E0009FEF1E140CF491E0899F802D112480939C
:1026F0000F02FF2059F00E9479119FEF1F140CF474
:1027000091E0899F802D11248093100230910F0257
:10271000332309F498CF20911002222309F493CF98
:1027200045EB3403C0011124992359F090930F0213
:1027300045EB240390011124332339F03093100228
:1027400082CF81E080930F02F3CF81E0809310026B
:102750007ACF209104028AE0289F90011124241747
:10276000350708F085CF9F5F90930A0202C09F3F14
:10277000D1F7002359F00E94C3119FEF10160CF4FB
:1027800091E0899F802D112480931102112359F02B
:102790000E94C3119FEF11160CF491E0899F802DC8
:1027A00011248093120230911102332309F460CF77
:1027B00020911202222309F45BCF45EB3403C001C0
:1027C0001124992359F09093110245EB24039001B1
:1027D0001124332339F0309312024ACF81E08093E1
:1027E0001102F3CF81E08093120242CF86E0EDE048
:1027F000F2E0DF011D928A95E9F710920B02109228
:102800000A0210920C0208950F931F93CF93DF9347
:10281000C42FD22FFC0182818823C9F04093150276
:102820000E943318909314028093130280E28C0F5D
:10283000883008F050C0C77081E001C0880FCA9589
:10284000EAF7DF91CF911F910F910C942F04109113
:102850001502141335C080911302909114020E9446
:102860004B18883C910560F5C0E2CD0F1D17B9F0FB
:1028700080E2810F883040F4177081E001C0880F3A
:102880001A95EAF70E943604C83048F481E09D2F7B
:10289000977001C0880F9A95EAF70E942F04802F45
:1028A0000E942704C830B8F4D77081E001C0880FB7
:1028B000DA95EAF7DF91CF911F910F910C943604CE
:1028C00080E28C0F883038F4C77081E001C0880F37
:1028D000CA95EAF7EFCFDF91CF911F910F9108953D
:1028E0000F939C01CB01243F4CE5340759F1A8F428
:1028F000293DFCE53F0701F12A3D4CE53407D1F1C4
:10290000283D3C4591F406E221EE41EE68ED7CE580
:102910000E94041480E00F910895263FFCE53F07D4
:10292000E9F0B0F0273F3C45F9F0FC0182818823B3
:1029300039F110921502EFCF07E225EE45EE69ED71
:102940007CE5E6CF06E221EE40EE64EF7CE5E0CFE9
:1029500007E225EE44EE65EF7CE5DACF06E221EEF4
:1029600042EE66EF7CE5D4CF07E225EE46EE67EF58
:102970007CE5CECF08E221E045EE6AED7CE5C8CFEC
:1029800081E0C9CFCF93DF93EC01FB0182818823E3
:1029900009F419C1C230FCE5DF07C0F1C6319CE57E
:1029A000D90730F09E012B5F3C452930310570F589
:1029B0000E94640C9093300280932F02C031ECE5AA
:1029C000DE0709F4CFC008F05BC0C8308CE5D8073B
:1029D00009F4B6C088F5C430ECE5DE0709F4A8C0F8
:1029E000C0F4C2308CE5D80709F49CC080912F0256
:1029F0008260C330DC4509F498C080912F02909129
:102A000030020E94720C0E94940680E0DF91CF9108
:102A1000089580912F028061C630ECE5DE0709F44D
:102A200084C080912F028860C730DC4508F47DC0E7
:102A300080912F02806279C0CC308CE5D80709F4F0
:102A400089C070F480912F028C60CA30ECE5DE07FB
:102A500009F46BC008F478C080912F028E7F65C0A6
:102A6000CE308CE5D80709F479C080912F028B7F96
:102A7000CF30DC4508F459C080912F028F7E55C0BD
:102A8000CC3FECE5DE0709F457C030F5C3318CE5E7
:102A9000D80709F46FC078F4C131ECE5DE0709F41A
:102AA00065C0C231DC4509F0A8CF0E949406809130
:102AB0002F028F773AC0C5318CE5D80709F462C080
:102AC00008F476C0809130028160CB3FDC4509F08C
:102AD00094CF8093300291CFC115FDE5DF0709F453
:102AE0004DC088F4809130028D7FCE3F9CE5D907A0
:102AF00081F3809130028E7FCF3FDC4550F380918F
:102B000030028360E6CFC230FDE5DF0709F459C02B
:102B100008F444C080E0C330DD4509F06ECF0E9468
:102B2000F80C6BCF80912F02816080932F0265CFCC
:102B300080912F028460F9CF809130028260C9CFEA
:102B400080912F028064F1CF0E94940680912F0221
:102B50008068EBCF80912F028D7FE7CF80912F028D
:102B6000877FE3CF80912F028F7DDFCF80912F026F
:102B70008F7BDBCF80912F02837FD7CF8091300274
:102B80008C7FA7CF80912F0282FB992790F921E0BB
:102B9000922790FB82F990FB83F9C7CF8091300296
:102BA000982F909591708E7F892B90FB81F991CF12
:102BB0000E94940690912F02892F97FB87F98058E5
:102BC000B4CF81E0ACCF81E021CFCF93DF93EB0195
:102BD00086319C4511F50E94A10B9A81992399F0A9
:102BE0008A7A91E009F490E090931602811109C06D
:102BF00089E20E945B0B0E94E40B80E0DF91CF91A1
:102C0000089585E3F6CF80911602811104C089E210
:102C10000E94620BF0CF85E3FBCF81E0EFCF0F93F3
:102C20001F93CF93DF938C01EB018091080182FF0A
:102C30002DC08B7F809308018091190290911A0218
:102C40009B01281B390B8091090190910A012817DB
:102C5000390788F4809117020E949303809108013C
:102C60008D7F80930801809117020E94E10382E02A
:102C70000E94BA0B15C082E00E94B40B809117022B
:102C80000E949303809108018260EBCF802F0E9405
:102C9000E10380911702909118020817190739F380
:102CA0000E94E40BD0931A02C0931902DF91CF91D6
:102CB0001F910F9108958091080182FF18C00E9412
:102CC00033182091190230911A02AC01421B530BA8
:102CD0009A014091090150910A012417350738F0F3
:102CE000BC0180911702909118020C940F16089560
:102CF00090910801892F8E7F90FF81608093080159
:102D000082E00C94BA0B809108018E7F80930801B9
:102D100082E00C94BA0B8B32910521F028F44E9787
:102D20000A9758F481E008958D32910530F0893387
:102D30009105C0F384369105A9F380E00895CF9200
:102D4000DF92EF92FF920F931F93CF938C016B0151
:102D50000E9433187C01F601C281CC2361F180917D
:102D6000080182FF05C0B70190E080E00E940F16C5
:102D700082E00E94BA0B0B31FCE51F0799F00C3181
:102D80008CE51807A9F00A31ECE51E07A1F40E94B2
:102D900078168C2FCF911F910F91FF90EF90DF90BD
:102DA000CF90089580910801816080930801F1CF50
:102DB0000E948316EECFB601C8010E948B168111C6
:102DC00002C0C1E0E6CFF601C281CC23D1F08091F0
:102DD000080180FFF6CF0E94A10B8111F2CF109362
:102DE000180200931702F0921A02E09219028091E1
:102DF000080184608093080182E00E94350CC0E0E5
:102E0000C8CFB701C8010E940F16C3CF909320020C
:102E100080931F020895E0911F02F09120023097E5
:102E200021F00190F081E02D099480E00895E09177
:102E30001F02F0912002309721F00280F381E02DF3
:102E400009940895E0911F02F0912002309739F023
:102E500022E0DC012C930480F581E02D0994089593
:102E600020911D0230911E022817390771F09093AE
:102E70001E0280931D02E0911F02F0912002309704
:102E800021F00680F781E02D0994089520911B021E
:102E900030911C022817390771F090931C0280931F
:102EA0001B02E0911F02F0912002309721F0008474
:102EB000F185E02D099408959C012E5F3F4FAC01F0
:102EC000485F5F4F80E02417350709F40895F90142
:102ED00091919F019923B9F38F5FF5CF662349F054
:102EE000FC01329608962191261729F0E817F90778
:102EF000D1F780E0089581E008959C01FC013296AD
:102F00009FEF80E04191461751F09F3F19F4411126
:102F100001C0982F8F5F8630A9F79F3F09F408956D
:102F2000290F311D97FD3A95F90162830895FC013F
:102F3000329608962191261303C0DF0111971C9247
:102F4000E817F907B9F708950C947D170C949717B3
:102F5000029626E0FC0111922A95E9F7089508955A
:102F6000089508950C94B11780914902843049F175
:102F70000E94B21780E00E9448031092210288E16B
:102F800090E020E40FB6F894A895809360000FBEFF
:102F90002093600083B7817F846083BF83B78160A3
:102FA00083BF7894889583B78E7F83BF0FB6F894DC
:102FB000A895809160008861809360001092600005
:102FC0000FBE08950895CF930E94B0170E94E91094
:102FD0000E94E217C0E08C2F0E940A10892B31F466
:102FE000CF5FC430C1F780E0CF91089581E0FCCF7E
:102FF00008950C94F8170E9494060E940B170E94E3
:1030000048030C94F9171F921FB61F9211248F9337
:103010009F93AF93BF9380912102811113C0809140
:10302000410290914202A0914302B0914402419624
:10303000A11DB11D8093410290934202A0934302CF
:10304000B0934402BF91AF919F918F911F901FBE8B
:103050001F90189582E084BD93E095BD9AEF97BDCF
:1030600080936E0008952FB7F8948091410290915B
:103070004202A0914302B09144022FBF08952FB79E
:10308000F8946091410270914202809143029091C4
:1030900044022FBF08959C014FB7F89480914102DC
:1030A00090914202A0914302B09144024FBF821B13
:1030B000930B089578941F921FB61F9211248F933B
:1030C0009F93AF93BF938091410290914202A09150
:1030D0004302B09144020196A11DB11D80934102AB
:1030E00090934202A0934302B0934402BF91AF91E8
:1030F0009F918F911F901FBE1F90189581E0809324
:10310000E00080E28093D8001092C9008FE19EE435
:103110000197F1F700C0000087E090EBDC0180939D
:10312000520290935302A0935402B093550288E147
:103130009CE00FB6F894A895809360000FBE909322
:103140006000FFCF9093870180938601089580915E
:103150002D02089590914902943031F58093220216
:10316000709324026093230282E08093E9008FEF42
:103170009091E800815095FD06C095ED9A95F1F784
:1031800000008111F5CF8091E80085FF0DC050E06F
:1031900040E063E070E082E292E00E94B61A809123
:1031A000E8008E778093E8000895BC0184E00C94D9
:1031B000AA18BC0183E00C94AA189C0182E08093B9
:1031C000E9009FEF8091E800915085FD06C085EDF4
:1031D0008A95F1F700009111F5CF8091E80085FF05
:1031E0000CC050E040E066E070E0C9010E94B61AF1
:1031F0008091E8008E778093E8000895CF93DF9365
:10320000EC0181E08093E9008FEF9091E80081501C
:1032100095FD06C095ED9A95F1F700008111F5CF67
:103220008091E80085FF14C050E040E068E070E065
:10323000CE010E94B61A8091E8008E778093E80054
:1032400088E0FE01A5E2B2E001900D928A95E1F7D7
:10325000DF91CF91089580914802811109C00E94A9
:10326000461C0E94A31C8091E20084608093E200CF
:10327000089510924802089508950895089542E02F
:1032800061EC81E00E94C21B42E261EC82E00C949E
:10329000C21B80914B02833009F45FC030F481304F
:1032A000C1F1823009F49BC008958A3009F487C0C7
:1032B0008B3009F46DC0893009F04EC080914A020C
:1032C000813209F049C080914E0290914F020297DD
:1032D00008F042C08091E800877F8093E8008091E9
:1032E000E80082FF35C09091F3008091F2000297D0
:1032F00029F48091F1008B7F813021F48091F100DD
:1033000080932D028091E8008B778093E8000C94E5
:10331000F61B80914A02813AF9F48091E800877F98
:103320008093E80080914E0290914F02892B61F4C6
:1033300068E085E292E070E00E94051B8091E80061
:103340008B778093E800089560E090E080E0F3CF11
:10335000809149028111C3CF089580914A02813A38
:10336000D9F780914E0290914F02892BA9F7809155
:10337000E800877F8093E8008091E80080FFFCCF21
:10338000809115018093F1008091E8008E77BDCF88
:1033900080914A02813201F780914E0290914F0252
:1033A000892BD1F68091E800877F8093E8000E9406
:1033B000F61B80914C02809315010C949406809129
:1033C0004A02813249F68091E800877F8093E800C5
:1033D0000E94F61B80914D0280932E0208958091E9
:1033E0004A02813A09F0B8CF8091E800877F809344
:1033F000E8008091E80080FFFCCF80912E02C2CFD0
:1034000084B7877F84BF0FB6F894A8958091600039
:10341000886180936000109260000FBE80E890E0A9
:103420000FB6F89480936100909361000FBE0C94E6
:103430001E0D0E94461C0E94A31CE2EEF0E080815B
:103440008460808378940E942C1F0E94320D8BE050
:1034500091E00C94061780914902853031F48091F7
:103460004902853021F00E94FB170C94380D0E9410
:10347000B41780914702882391F30E94E3178823B1
:1034800071F30E94A01A0E949406E9CF0C94481A86
:10349000292F33272330310519F168F42130310504
:1034A00009F444C02230310509F445C090E080E0C1
:1034B00030E020E025C02132310549F122323105CA
:1034C000A9F780E490E026E234E061157105C1F0CF
:1034D0008BE790E02BEA33E06130710589F0E6CFAD
:1034E00099278130910581F0009729F00297F1F634
:1034F000ECE2F3E002C0EAE5F3E0849190E09F01A2
:10350000FA01318320830895EAE3F3E0F6CF89E0FE
:1035100090E020E733E06115710591F389E090E0D8
:1035200029E833E06130710559F3C0CF82E190E0C2
:1035300029E933E0E5CF8BE390E02EE533E0E0CFFF
:1035400080E189BD82E189BD09B400FEFDCF809193
:10355000D8008F7D8093D8008091E00082608093B6
:10356000E0008091E00081FDFCCF0895AF92BF9212
:10357000CF92DF92FF920F931F93CF93DF936C0153
:10358000EB018A010E94151CF82E811123C0011540
:10359000110539F0F80180819181C81BD90BC80E43
:1035A000D91EB12CA12C2097A9F08091E80085FDAF
:1035B00022C08091E8008E778093E8000115110504
:1035C000A1F0F80180819181A80EB91EB182A0827C
:1035D00085E0F82E8F2DDF91CF911F910F91FF90F5
:1035E000DF90CF90BF90AF9008950E94151C882364
:1035F000D1F2F82EEFCFF60181916F018093F100A7
:103600002197FFEFAF1ABF0ACECFFC018091500285
:103610009091510286179707A0F06115710529F462
:103620009091E8009E779093E80090E06115710515
:1036300051F4911108C08091E80082FF34C080E00D
:103640000895BC01F2CF809149028823C1F18530F1
:10365000C1F18091E80083FD30C08091E80082FDD7
:10366000EACF8091E80080FFE1CF8091F3002091C4
:10367000F200382F6115710519F02830310558F026
:1036800091E02830310509F090E02091E8002E7794
:103690002093E800CBCF81918093F10061507109B4
:1036A0002F5F3F4FE7CF80914902882341F085305B
:1036B00041F08091E80083FFBECF81E0089582E071
:1036C000089583E00895FC01809150029091510289
:1036D00086179707A0F06115710529F48091E8001D
:1036E0008E778093E80090E06115710551F4911197
:1036F00008C08091E80082FF35C080E00895BC01D9
:10370000F2CF809149028823C9F18530C9F18091B7
:10371000E80083FD31C08091E80082FDEACF80910E
:10372000E80080FFE1CF8091F3002091F200382F74
:103730006115710519F02830310558F091E02830F5
:10374000310509F090E08091E8008E778093E800E1
:10375000CBCF84918093F1003196615071092F5F36
:103760003F4FE6CF80914902882341F0853041F0F8
:103770008091E80083FFBDCF81E0089582E0089545
:1037800083E00895982F973028F08F708093E90098
:1037900081E008959093E900242F762F50E0981748
:1037A00031F07091EC002091ED005091F00021FD7E
:1037B00002C09F5FE8CF3091EB003E7F3093EB007B
:1037C0003091ED003D7F3093ED003091EB003160A2
:1037D0003093EB007093EC002093ED005093F000D9
:1037E0002091EE0027FDE5CF80E0089580914A0208
:1037F00087FF13C08091E80082FF06C08091E80037
:103800008B778093E80004C0809149028111F2CF48
:103810000895809149028823D9F38091E80080FFC0
:10382000F8CF8091E8008E77ECCF2091E4003091C2
:10383000E50095E6A9012091EC00822F817020FF20
:1038400006C08091E80080FF06C080E008952091C6
:10385000E80022FD1AC080914902882389F0853052
:1038600089F08091EB0085FD0FC02091E40030913C
:10387000E50042175307F9F29150E1F684E008950C
:1038800082E0089583E0089581E008950E94B41CC9
:103890000E94BC1CE0EEF0E0808181608083E8ED56
:1038A000F0E080818F77808319BCA7EDB0E08C9128
:1038B0008E7F8C9380818F7E808310924802089542
:1038C0000F931F93CF93DF930E94B41C0E94BC1CE4
:1038D000C8EDD0E088818F7788838881806888836D
:1038E00088818F7D888319BC10924902109245020D
:1038F000109247021092460200EE10E0F80180811B
:103900008B7F808388818160888342E060E080E0F3
:103910000E94C21BE1EEF0E080818E7F8083E2EEA8
:10392000F0E0808181608083808188608083F801FD
:1039300080818E7F8083888180618883DF91CF91B1
:103940001F910F910895E8EDF0E080818F7E8083D4
:10395000E7EDF0E080818160808384E082BF81E0D8
:10396000809348020C94601CE8EDF0E080818E7F2B
:1039700080831092E20008951092DA001092E10024
:1039800008951F920F920FB60F9211242F933F9319
:103990004F935F936F937F938F939F93AF93BF9357
:1039A000EF93FF938091E10082FF0BC08091E200D2
:1039B00082FF07C08091E1008B7F8093E1000E942D
:1039C0002B1F8091DA0080FF19C08091D80080FF02
:1039D00015C08091DA008E7F8093DA008091D90043
:1039E00080FF96C080E189BD82E189BD09B400FEF7
:1039F000FDCF81E0809349020E942B198091E10064
:103A000080FF19C08091E20080FF15C08091E20024
:103A10008E7F8093E2008091E20080618093E200DB
:103A20008091D80080628093D80019BC85E0809393
:103A300049020E943D198091E10084FF2BC08091D2
:103A4000E20084FF27C080E189BD82E189BD89B59C
:103A5000982F917080FFFBCF8091D8008F7D80934D
:103A6000D8008091E1008F7E8093E1008091E20098
:103A70008F7E8093E2008091E20081608093E2007B
:103A800080914502882309F449C084E0809349026B
:103A90000E943E198091E10083FF29C08091E200DD
:103AA00083FF25C08091E100877F8093E10082E061
:103AB00080934902109245028091E1008E7F8093AD
:103AC000E1008091E2008E7F8093E2008091E2002D
:103AD00080618093E20042E060E080E00E94C21BCF
:103AE0008091F00088608093F0000E943C19FF9163
:103AF000EF91BF91AF919F918F917F916F915F9166
:103B00004F913F912F910F900FBE0F901F901895DE
:103B100019BC109249020E94391970CF8091E300BC
:103B200087FD93E090934902B3CF1F920F920FB697
:103B30000F9211242F933F934F935F936F937F9333
:103B40008F939F93AF93BF93CF93DF93EF93FF93A5
:103B5000D091E900DF708091EC00C82FC17080FD2A
:103B6000C0E81092E9008091F000877F8093F00018
:103B700078940E94D91D1092E9008091F00088602D
:103B80008093F000CD2BCF70C093E900FF91EF91AF
:103B9000DF91CF91BF91AF919F918F917F916F9165
:103BA0005F914F913F912F910F900FBE0F901F90FB
:103BB00018951F93CF93DF93CDB7DEB7AA970FB6B3
:103BC000F894DEBF0FBECDBF8AE492E02091F100F1
:103BD000FC012193CF01F2E082359F07B9F70E94E3
:103BE00049198091E80083FF1EC180914A0290919B
:103BF0004B029A3008F017C1E92FF0E0E052F04E86
:103C00000C945B1F803899F0823809F00CC18091C8
:103C10004E028F70873008F006C18093E9008091D2
:103C2000EB0085FB882780F91092E90006C080919F
:103C3000460290914702911182609091E800977F2F
:103C40009093E8008093F1001092F1008091E800D9
:103C50008E77E5C0882309F4D3C0823009F0E3C031
:103C600080914C028111D6C080914E028F702FEF4F
:103C7000280F263008F0D7C08093E9002091EB0090
:103C800020FFC8C0933031F48091EB0080628093B4
:103C9000EB00C0C09091EB0090619093EB0021E0AD
:103CA00030E001C0220F8A95EAF72093EA001092D3
:103CB000EA008091EB008860EACF8111B4C01091D6
:103CC0004C021F778091E3008078812B8093E30082
:103CD0008091E800877F8093E8000E94F61B809126
:103CE000E80080FFFCCF8091E30080688093E300D0
:103CF00082E0111183E08093490295C080588230A0
:103D000008F091C080914C0290914D028C3D23E0CF
:103D10009207A1F583E08A838AE289834FB7F894FA
:103D2000DE01139620E03EE051E2E32FF0E05093F5
:103D30005700E49120FF03C0E295EF703F5FEF7002
:103D40008E2F90E0EA30C0F0C7968D939D932F5F41
:103D5000243159F74FBF8091E800877F8093E800B6
:103D60006AE270E0CE0101960E94051B8091E80096
:103D70008B778093E80057C0C096E7CF60914E02E2
:103D800070914F02AE014F5F5F4F0E94461ABC0117
:103D9000892B09F448C09091E800977F9093E80040
:103DA00089819A810E94631BE1CF8038E1F580917F
:103DB000E800877F8093E800809145028093F100BE
:103DC00045CF811130C090914C02923060F58091C6
:103DD000E800877F8093E800909345020E94F61BDD
:103DE00080914502882311F084E005C08091E300B2
:103DF00087FDFACF81E0809349020E943F1913C0EA
:103E000080914C02813079F481E0933009F080E0B8
:103E1000809347021092E9008091E800877F8093A9
:103E2000E8000E94F61B8091E80083FF0AC08091A1
:103E3000E800877F8093E8008091EB0080628093A8
:103E4000EB00AA960FB6F894DEBF0FBECDBFDF9190
:103E5000CF911F9108950895CF93809149028823AF
:103E6000A1F0C091E900CF709091EC00892F817092
:103E700090FD80E8C82B1092E9008091E80083FD56
:103E80000E94D91DCF70C093E900CF91089597FB90
:103E9000072E16F4009407D077FD09D00E94611F09
:103EA00007FC05D03EF4909581959F4F089570953D
:103EB00061957F4F0895EE0FFF1F0590F491E02D5F
:103EC0000994AA1BBB1B51E107C0AA1FBB1FA61761
:103ED000B70710F0A61BB70B881F991F5A95A9F7B3
:103EE00080959095BC01CD010895FB01DC0104C0D3
:103EF0008D910190801921F441505040C8F7881BE2
:103F0000990B0895F999FECF92BD81BDF89A992732
:103F100080B50895A8E1B0E042E050E00C94B61FEF
:103F2000262FF999FECF92BD81BDF89A019700B472
:103F3000021639F01FBA20BD0FB6F894FA9AF99A12
:103F40000FBE08950396272F0E94911F0E94901F75
:103F5000252F0E94911F242F0C94911F0196272F2B
:103F60000E94911F0C94901FDC01CB01FC01F99978
:103F7000FECF06C0F2BDE1BDF89A319600B40D92B5
:103F800041505040B8F70895F894FFCF740474047A
:103F9000CB04CB0417053305A104A1043E05CA05D3
:103FA000D905D905A306A306AC06AC06AE06AC0639
:103FB000AC06AC06A306A306B306AC06AC06B30675
:103FC000021E2A1E131F2A1E131F5D1E7E1E131F94
:043FD000D51EE11EFB
:103FD400E40128086440061001C800A718FE18DD93
:103FE40018D918D51801E200E900EA00B500B600B6
:103FF400B700CD008301CC008A0192019401210213
:10400400230224022502260227022A02B300B40056
:104014006F007000818283E200E900EA00B500B617
:1040240000B700CD008301CC008A019201940121E4
:1040340002230224022502260227022A02B300B424
:10404400006F00700081828336323331F76697C681
:064054003435F4F59190F3
:00000001FF
